:020000040800F2
:10000000C032002051030008590300085B030008B8
:100010005D0300085F0300086103000800000000A2
:100020000000000000000000000000006303000862
:1000300065030008000000003BAE0008F5A90008B9
:100040006B0300086B0300086B0300086B030008D8
:100050006B0300086B0300086B0300086B030008C8
:100060006B0300086B0300086B0300086B030008B8
:100070006B0300086B0300086B0300086B030008A8
:100080006B0300086B0300086B0300086B03000898
:100090006B0300086B0300086B0300086B03000888
:1000A0006B0300086B0300086B0300086B03000878
:1000B0006B0300086B0300086B0300086B03000868
:1000C0006B0300086B0300086B0300086B03000858
:1000D0006B0300086B0300086B0300086B03000848
:1000E0006B0300086B0300086B0300086B03000838
:1000F0006B0300086B0300086B0300086B03000828
:100100006B0300086B0300086B0300086B03000817
:100110006B0300086B0300086B0300086B03000807
:100120006B0300086B0300086B0300086B030008F7
:1001300000F002F800F041F80AA090E8000C8244B8
:100140008344AAF10107DA4501D100F036F8AFF295
:10015000090EBAE80F0013F0010F18BFFB1A43F0A5
:1001600001031847FCB000001CB10000103A24BF86
:1001700078C878C1FAD8520724BF30C830C144BF0C
:1001800004680C607047000000230024002500264E
:10019000103A28BF78C1FBD8520728BF30C148BFEA
:1001A0000B60704773290AF0C585002070471FB5A2
:1001B0000AF074FE1FBD10B510BD0AF0EDFD11462A
:1001C000FFF7F5FF00F0E8FE0AF00BFE03B4FFF7BF
:1001D000F2FF03BC00F000F8014600BF704700BF0B
:1001E000564A128812F0400FFAD0C2B2544B1A800D
:1001F000704710B500F0B8FF10BD5248806940F05C
:100200000100504988615048406820F0E0604E4944
:1002100048600846406840F080604860704708B514
:100220004FF4806000F0B4F827208DF80000002023
:100230008DF801008DF8020001208DF8030068465A
:1002400000F0ABF825208DF8000000208DF80100AB
:100250008DF8020001208DF80300684600F09DF83B
:1002600034208DF8000000208DF801008DF8020088
:1002700001208DF80300684600F08FF826208DF8E5
:10028000000000208DF801008DF8020001208DF89B
:100290000300684600F081F808BD10B586B004463A
:1002A0000121052000F003FC0121480400F00CFCB2
:1002B0000420ADF8140018208DF8170003208DF8E5
:1002C000160005A9214800F03FF90820ADF81400F8
:1002D00004208DF8170003208DF8160005A91B488F
:1002E00000F032F901940020ADF80800ADF80A00E2
:1002F000ADF80C00ADF810000C20ADF80E0001A90F
:100300000E4800F086FCFFF78AFF012240F22551DB
:100310000A4800F016FD0121084800F006FD06B06D
:1003200010BD704710B5FFF764FFFFF7FAFF4FF4F9
:10033000E130FFF7B2FFFFF772FF10BD004400404D
:100340000444004000100240000001400008014049
:100350000948804709480047FEE7FEE7FEE7FEE759
:10036000FEE7FEE7FEE7FEE7FEE7FEE70448054995
:10037000054A064B7047000069110008310100086A
:10038000C02C0020C0320020C02E0020C02E002033
:1003900036490143364A1160704770B50021002389
:1003A0000F22C4784CB3324C246804F4E064C4F5E2
:1003B000E0644FEA1421C1F1040322FA01F2447807
:1003C00004FA03F1847804EA020444EA01014FEAE2
:1003D0000111284C0678A155047804F01F054FF050
:1003E000010404FA05F405784FEA65154FF0E0269C
:1003F00006EB8505C5F8004109E0047804F01F0507
:100400000124AC401C4D0678761145F8264070BD9D
:100410001A4A0A4002431A4B1A60704741B1194AFE
:10042000126842EA00024FF0E023C3F8102D07E003
:10043000144A126822EA00024FF0E023C3F8102D9C
:100440007047042808D14FF0E021096941F0040108
:100450004FF0E022116107E04FF0E021096921F03F
:1004600004014FF0E0221161704700000000FA051E
:100470000CED00E000E400E080E100E080FFFF1F01
:1004800008ED00E010ED00E010B50446CA488442D3
:1004900008D10121042000F024FB0021042000F0F9
:1004A00020FB46E0C548844208D10121082000F025
:1004B00018FB0021082000F014FB3AE0C0488442F9
:1004C00008D10121102000F00CFB0021102000F0C9
:1004D00008FB2EE0BB48844208D10121202000F017
:1004E00000FB0021202000F0FCFA22E0B648844204
:1004F00008D10121402000F0F4FA0021402000F052
:10050000F0FA16E0B148844208D10121802000F0C1
:10051000E8FA0021802000F0E4FA0AE0AC488442C6
:1005200007D10121801500F0DCFA0021A01500F0B0
:10053000D8FA10BD10B50121084600F0D2FA00210A
:10054000012000F0CEFA10BD2DE9F0410246002551
:100550000026002000230024002791F803C00CF09F
:100560000F0591F803C01CF0100F03D091F802C0E2
:100570004CEA0505B1F800C01CF0FF0F31D014683B
:1005800000202BE04FF0010C0CFA00F3B1F800C092
:100590000CEA03069E4220D183004FF00F0C0CFAA8
:1005A00003F7BC4305FA03FC4CEA040491F803C0CA
:1005B000BCF1280F06D14FF0010C0CFA00FCC2F878
:1005C00014C00AE091F803C0BCF1480F05D14FF008
:1005D000010C0CFA00FCC2F810C0401C0828D1D352
:1005E0001460B1F800C0BCF1FF0F34DD5468002086
:1005F0002EE000F1080C4FF0010808FA0CF3B1F8F6
:1006000000C00CEA03069E4221D183004FF00F0C7C
:100610000CFA03F7BC4305FA03FC4CEA040491F816
:1006200003C0BCF1280F05D100F1080C08FA0CF842
:10063000C2F8148091F803C0BCF1480F07D100F153
:10064000080C4FF0010808FA0CF8C2F81080401CA2
:100650000828CED35460BDE8F0814FF6FF710180C9
:10066000022181700421C170704702460020936806
:100670000B4201D0012000E000207047014688684D
:1006800080B2704702460020D3680B4201D001209F
:1006900000E0002070470146C86880B270470161E1
:1006A0007047416170470AB1016100E041617047E4
:1006B000C16070474FF480320A4382618161826178
:1006C00082698269704702460020424B18684FF6E3
:1006D0008073184040EA021008433E4B1860704790
:1006E0003D49C8617047F0B50A4600230024002147
:1006F000002500F00046B6F1004F02D1354EF169F9
:1007000001E0344E7168C0F3034583B200F4401633
:10071000B6F5401F08D121F070612E4E766826F0A4
:1007200070662C4F7E6012E000F48016B6F5801FD4
:1007300006D1032606FA05F4A14341F0706106E0F4
:10074000460D360103FA06F6B14341F0706122B15D
:10075000460D360103FA06F6314300F00046B6F1C5
:10076000004F02D11B4EF16101E01A4E7160F0BDE5
:1007700030B500228B071C0F0F2303FA04F2154B30
:1007800008338C1053F824309343124C08348D10E6
:1007900044F8253023468C1053F824308C07240F5E
:1007A00000FA04F423430B4C08348D1044F8253030
:1007B00030BD0A490860704700080140000C014044
:1007C000001001400014014000180140001C0140CD
:1007D000002001400000014000002042DC002042D7
:1007E000DB48006840F00100D949086008464068CD
:1007F000D8490840D649486008460068D6490840AC
:10080000D34908600846006820F480200860084644
:10081000406820F4FE0048604FF41F008860704775
:10082000CB49096821F48031C94A11601146096831
:1008300021F480211160B0F5803F03D0B0F5802F06
:100840000ED106E0C249096841F48031C04A116006
:1008500007E0BF49096841F4A021BD4A116000E0EA
:1008600000BF00BF704710B50146002200230020E2
:100870004A11012A02D1B64C236806E0022A02D1AD
:10088000B34C236A01E0B24C636A01F01F020124F9
:1008900094401C4201D0012000E0002010BD70B542
:1008A00000240025002600BF3120FFF7DCFF0646AC
:1008B000641CB4F5A06F01D0002EF5D03120FFF7F5
:1008C000D2FF08B1012500E00025284670BD014691
:1008D00000209F4A106820F0F80040EAC100106034
:1008E00070479E490860704702460020984B586840
:1008F00020F47C1042EA01031843954B586070477E
:1009000096490866704701460020914A506820F0D9
:1009100003000843506070478D48406800F00C00A9
:100920007047014600208A4A506820F0F0000843D2
:100930005060704701460020854A506820F4E0600E
:1009400008435060704701460020814A506820F4F7
:10095000605040EAC1005060704729B17C4A527A29
:1009600002437B4B5A7206E0794A527AC343DBB2A8
:100970001A40774B5A7270477949086070470146B0
:100980000020734A506820F440400843506070478C
:100990000021744A11706E4A82F82010012802D09A
:1009A000042808D103E001216E4A117004E00521FA
:1009B0006C4A117000E000BF00BF70476A490860D0
:1009C00070476349096A0143614A11627047674988
:1009D0000860704730B500210022002400235C4DE0
:1009E0006D6805F00C0121B1042905D0082923D137
:1009F00005E05F4D056022E05E4D05601FE0544D4F
:100A00006D6805F47012524D6D6805F4803402254E
:100A100005EB92421CB9584D554305600BE04C4D17
:100A20006D6815F4003F03D0544D5543056002E056
:100A3000504D5543056002E04D4D056000BF00BFBD
:100A4000434D6D6805F0F00109094D4D6B5C05687B
:100A5000DD4045603E4D6D6805F4E061090A484D92
:100A60006B5C4568DD408560394D6D6805F460510B
:100A7000C90A434D6B5C4568DD40C560344D6D6807
:100A800005F44041890B3F4D6B5CC568B5FBF3F540
:100A9000056130BD29B12E4A526902432C4B5A617F
:100AA00004E02B4A52698243294B5A61704729B1AD
:100AB000274A92690243264B9A6104E0244A9269CC
:100AC0008243234B9A61704729B1214AD26902437C
:100AD0001F4BDA6104E01E4AD26982431C4BDA6183
:100AE000704729B11A4AD2680243194BDA6004E010
:100AF000174AD2688243164BDA60704729B1144A0C
:100B000012690243124B1A6104E0114A12698243CE
:100B10000F4B1A6170471C49086070470F49C86441
:100B200070470B49C87170470948406A40F08070AF
:100B300007494862704701460020054A92680A4208
:100B400001D0012000E00020704701498872704701
:100B5000001002400000FFF8FFFFF6FE00004242D6
:100B6000D800424220100240800442423C044242EB
:100B700000127A00001BB70000093D00808D5B0069
:100B800004000020140000204004424210B5044636
:100B9000FC48844209D101218803FFF7A2FF00210C
:100BA0004FF48040FFF79DFF32E0F748844209D1BF
:100BB00001214804FFF7A2FF00214FF40030FFF7A6
:100BC0009DFF25E0F148844209D101218804FFF707
:100BD00095FF00214FF48020FFF790FF18E0EC48CC
:100BE000844209D10121C804FFF788FF00214FF496
:100BF0000020FFF783FF0BE0E648844208D1012183
:100C00000805FFF77BFF00214FF48010FFF776FF08
:100C100010BD2DE9F04786B005460E460024A246D9
:100C200000BFA1460027B08900B100BF2F462C8A23
:100C30004CF6FF700440F08804432C82AC894EF6D9
:100C4000F3100440B0883189084371890843044394
:100C5000AC81AC8A4FF6FF400440B0890443AC82BB
:100C600001A8FFF7B7FEC748874202D1DDF810A000
:100C700001E0DDF80CA0A88910F4004F08D00AEBC1
:100C8000CA0000EB0A1031684900B0FBF1F807E038
:100C90000AEBCA0000EB0A1031688900B0FBF1F8DA
:100CA0006420B8FBF0F004012009642101FB1089E5
:100CB000A88910F4004F08D0322000EBC900B0FB27
:100CC000F1F000F00700044308E0322000EB0910C7
:100CD0006421B0FBF1F000F00F0004432C8106B05A
:100CE000BDE8F0874FF41651016000218180C1807A
:100CF00001810C21418100218181704710B502469C
:100D00000020108A4FF2FF0318400B884C882343C1
:100D10008C882343CC8823431843108210BD0021C4
:100D2000018041808180C180704721B1828942F475
:100D30000052828104E082894DF6FF731A4082815D
:100D40007047F0B503460024002600250020A1F5D9
:100D500010676A3F00D100BF1846C1F3421401F08A
:100D60001F06012707FA06F5012C01D10C3004E01B
:100D7000022C01D1103000E014301AB107682F4363
:100D8000076002E00768AF430760F0BD10B51AB115
:100D9000838A0B43838204E0838ACC43A4B223403A
:100DA000838210BD028A4FF6F0731A400282028AD3
:100DB0000A430282704782894FF2FF731A40828190
:100DC00082890A438281704721B1828942F00202FE
:100DD000828104E082894FF6FD731A408281704758
:100DE000028A4FF6DF731A400282028A0A430282A5
:100DF000704721B1028A42F48042028204E0028AF2
:100E00004BF6FF731A4002827047C1F308028280DA
:100E1000704701468888C0F308007047818941F017
:100E2000010181817047028BD2B20283028B42EAB8
:100E3000012202837047028B02F47F420283028BFD
:100E40000A430283704721B1828A42F020028282E3
:100E500004E0828A4FF6DF731A408282704721B124
:100E6000828A42F01002828204E0828A4FF6EF7397
:100E70001A408282704721B1828A42F0080282823F
:100E800004E0828A4FF6F7731A408282704721B1DC
:100E9000828942F40042828103E08289C2F30E0219
:100EA0008281704721B1828A42F40062828204E02A
:100EB000828A4FF2FF731A4082827047828A4FF60D
:100EC000FB731A408282828A0A438282704721B170
:100ED000828A42F00202828204E0828A4FF6FD7327
:100EE0001A408282704702460020B1F5007F00D18F
:100EF00000BF13880B4201D0012000E000207047A2
:100F000001F40072B2F5007F00D100BFCA43028035
:100F1000704770B502460024002300250020A1F58B
:100F200010666A3E00D100BFC1F3421501F01F03F5
:100F3000012606FA03F3012D02D19689334006E01B
:100F4000022D02D1168A334001E0968A33400C12FA
:100F5000012606FA04F41688344013B10CB10120BE
:100F600000E0002070BD10B500220023A1F5106440
:100F70006A3C00D100BF0A1201249440A3B2DC43B2
:100F8000048010BD0038014000440040004800408B
:100F9000004C0040005000408AB000244FF4A06094
:100FA000FFF7F6F909F032FDFFF7BCF931A009F0BF
:100FB00041FE09A801F0CEFF00BF00BF00BF00F056
:100FC00029FB044600BF00BF2D480078401C2C4977
:100FD000087000BF00BF204600F020FB00BF00BF2C
:100FE00000BF09AB03220021059106A80EC00B46E5
:100FF0004FF4007233212348CDE90323CDE90101E9
:10100000032300930023204A20A1234806F032FD49
:1010100000BF00BF00BF00F0FDFA044600BF00BFE4
:1010200017480078401E1649087008460078A0B995
:101030001A480088002809DD00BF00BF204600F0E4
:10104000EDFA00BF00BF02F0B1FD0DE000BF00BF30
:10105000204600F0E3FA00BF06E000BF00BF2046D4
:1010600000F0DCFA00BF00BF00BF09A802F041FA9F
:1010700000BFFEE748656C6C6F21210D0A0000007F
:10108000A40000209821002091A8000853746172E8
:1010900074205461736B0000D4200020680000208D
:1010A00000210020674A126842F48032654B1A60C2
:1010B00000BF644A126802F40030491C10B9B1F54F
:1010C000A06FF6D15F4A126812F4003F01D00120F0
:1010D00000E00020012842D15B4A126842F0100271
:1010E000594B1A601A46126822F003021A601A4617
:1010F000126842F002021A60524A5268514B5A601A
:101100001A4652685A601A46526842F480625A601F
:101110001A46526822F47C125A601A46526842F407
:1011200088125A601A46126842F080721A6000BF34
:10113000444A126812F0007FFAD0424A526822F004
:101140000302404B5A601A46526842F002025A604B
:1011500000BF3C4A526802F00C02082AF9D17047DD
:1011600010B5FFF79DFF10BD10B53648006840F080
:101170000100344908600846406834490840314954
:10118000486008460068324908402E490860084611
:10119000006820F4802008600846406820F4FE00C3
:1011A00048604FF41F008860FFF7DAFF4FF00060DF
:1011B0002849086010BD10B5002100200022214BF5
:1011C0005B6803F00C0121B1042906D0082928D15D
:1011D00007E0214B214C236027E0214B1F4C23606B
:1011E00023E0184B5B6803F47010164B5B6803F444
:1011F0008032022303EB904022B91A4B4343174C31
:1012000023600DE00F4B5B6813F4003F04D0164BD6
:101210004343124C236003E0114B43430F4C2360C4
:1012200003E00D4B0D4C236000BF00BF054B5B6816
:10123000C3F303130D4CE15C084B1B68CB40074C18
:10124000236010BD00100240002002400000FFF8A3
:10125000FFFFF6FE08ED00E000127A001800002003
:10126000001BB70000093D00808D5B001C000020C2
:1012700000B585B06846FFF7ADFB019805B000BD2D
:1012800010B5FFF7F5FF04461948006840F080707C
:101290004FF0E021C1F8FC0D4FF000001549486007
:1012A0000846006840F001000860204600F0B6F8EB
:1012B00010BD1049486870472DE9F0478246FFF796
:1012C000D7FF4FF0000980460B4A002340464946AD
:1012D00009F025FC064602460B465046002109F05F
:1012E0001EFC04460D4620462946BDE8F087000056
:1012F000FCED00E0001000E040420F0010B50024BB
:1013000000BF00BF00F086F9044600BF00BF1021F7
:10131000BB4800F006FB00BF00BF204600F07EF98E
:1013200000BF00BF10BD10B5FFF7E8FF10BD10B53E
:101330000020B4490860FFF7A3FF10BD10B5FFF708
:10134000F6FFFFF7F0FF10BD00BFFEE770B50546E2
:101350000C46002614B900BFFFF7F6FF15B90A20A6
:10136000208070BD00BF00BF00F054F9064600BFEA
:1013700000BF1022A249284600F08AFF00BF00BF2C
:10138000304600F04BF900BF00BF0020208000BFB6
:10139000E7E72DE9F04105460C46002714B900BFE8
:1013A000FFF7D2FF1DB90A202080BDE8F08110218F
:1013B000284600F055FF0646102E15D200BF00BF8C
:1013C00000F028F9074600BF00BF102229468C48CC
:1013D00000F05EFF00BF00BF384600F01FF900BFFD
:1013E00000BF0020208002E04FF47A70208000BF10
:1013F000DBE710B5FFF75DFF0446204610BD7047E0
:10140000014611B900BFFFF79FFF7E4A106808B17F
:10141000002201E04FF4FA620A80704779490860BF
:10142000704770B50546284600F0FFF80446183CA2
:10143000204670BD70B50546284600F0F6F8044613
:10144000103C204670BD70B50546284600F0EDF80A
:10145000044600BF204670BD2DE9F04F8BB0044616
:101460000D464FF0FF314FF00000091BA84143D259
:101470004FF0FF31080C091BA8411DD24FF0FF317E
:10148000080A091BA8410AD23822A046A9462046CC
:10149000294609F0BBFB06465B498F5D69E03022B7
:1014A000A246AB462046294609F0B0FB06465649FF
:1014B000885D00F108075CE04FF0FF31FF20091B59
:1014C000A8410CD2282220462946CDE9015409F032
:1014D0009DFB06464C49885D00F1100749E020223B
:1014E00020462946CDE9035409F090FB06464649BB
:1014F000885D00F118073CE04FF6FF710020091BE2
:10150000A8411FD26FF07F410020091BA8410CD2D7
:10151000182220462946CDE9055409F077FB0646F6
:101520003949885D00F1200723E010222046294632
:10153000CDE9075409F06AFB06463349885D00F19E
:10154000280716E0FF210020091BA8410CD2082221
:1015500020462946CDE9095409F058FB06462A4998
:10156000885D00F1300704E026462748805D00F1E1
:10157000380738460BB0BDE8F08F70B504460CB99B
:10158000082070BD204600F053F805462846F8E7CD
:1015900070B504460CB9102070BD204600F048F824
:1015A00005462846F8E770B504460CB9202070BD02
:1015B000204600F03DF805462846F8E72DE9F047BB
:1015C00004460D464FF0000184EA010085EA01015E
:1015D000084302D14020BDE8F087E243E843521CB3
:1015E00040F1000102EA040601EA050730463946E7
:1015F000FFF732FF8046C8F13F094846EBE700009D
:101600000C0100202C000020ACAE000872B6704720
:1016100062B67047EFF3108072B6704780F310889F
:10162000704730BF704720BF7047B0FA80F07047F6
:1016300090FAA0F0B0FA80F0704790FAA0F07047EE
:101640000146412903DB5A2901DC012200E0002286
:10165000012A08D0612903DB7A2901DC012200E09C
:101660000022012A01D1012200E00022D0B27047FD
:101670000146412903DB5A2901DC012200E0002256
:10168000012A08D0612903DB7A2901DC012200E06C
:101690000022012A01D1012200E00022012A08D003
:1016A000302903DB392901DC012200E00022012A74
:1016B00001D1012200E00022D0B270470146612929
:1016C00003DB7A2901DC012200E00022D0B270475E
:1016D0000146412903DB5A2901DC012200E00022F6
:1016E000D0B270470146302903DB392901DC0122E1
:1016F00000E00022D0B270470146302903DB3729D1
:1017000001DC012200E00022D0B2704701463029FE
:1017100001DB392907DD412901DB462903DD612988
:1017200003DB662901DC012200E00022D0B2704711
:101730000146202901D0092901D1012200E000221F
:10174000D0B270470146202909D00D2907D00A29B7
:1017500005D00C2903D0092901D00B2901D1012280
:1017600000E00022D0B270470146202903DB7E2929
:1017700001DC012200E00022D0B27047014621299D
:1017800003DB7E2901DC012200E00022D0B2704799
:101790000146202903DB7E2901DC012200E0002232
:1017A000012A35D1202909D00D2907D00A2905D0D1
:1017B0000C2903D0092901D00B2901D1012200E015
:1017C00000222ABB412903DB5A2901DC012200E067
:1017D0000022012A08D0612903DB7A2901DC0122D9
:1017E00000E00022012A01D1012200E00022012AAA
:1017F00008D0302903DB392901DC012200E0002276
:10180000012A01D1012200E000220AB9012200E0F0
:101810000022D0B2704701464AB2002A01DB1F29DC
:1018200001DD7F2901D1012200E00022D0B2704702
:101830000146412903DB5A2901DC012200E0002294
:10184000012A02D101F1200200E00A46D0B270471D
:101850000146612903DB7A2901DC012200E0002234
:10186000012A02D1A1F1200200E00A46D0B270475D
:10187000F0B505460B462846FFF7EAFF0646184630
:10188000FFF7E6FF0746BE4201D1012000E000203D
:10189000C4B22046F0BD0000FC48FD49016001468D
:1018A000416000218160C160016141618161C1616C
:1018B00001620163C1624162F6498163C1634FF411
:1018C0008061016441640146F34A116070472DE96B
:1018D000F04106460B4694460027002502E03F02F1
:1018E0001F436D1C042DFAD3604606F003043146F5
:1018F00044B1254603E001F8013B401E6D1C08B1D0
:10190000042DF8D30A4601E080C2001F0428FBD250
:10191000114602E001F8013B401E0028FAD1BDE863
:10192000F08130B505460C46224600212846FFF7D7
:10193000CEFF30BD2DE9F04F85B0804689469246F6
:101940004E464546AE4207D952464946404601F00A
:1019500023F905B0BDE8F08F544608EB0A00451E98
:1019600009EB0A00461EA81B04900498042834D3EF
:1019700005F0030706F0030001900198874201D1AA
:10198000012000E00020C0B200900098012824D17E
:10199000032F0FD078B2029008E016F8010905F87D
:1019A0000109641E0298401E40B2029014B10298D0
:1019B0000028F2DAA5F1030BF01E039007E003986C
:1019C00000684BF804090398001F0390241F042C9F
:1019D000F5D20BF103050398C61C04E016F80109C3
:1019E00005F80109641E002CF8D100BFB1E72DE90C
:1019F000F84F80468946154615B90120BDE8F88F95
:101A0000B8F1000F01D10020F8E7B9F1000F01D1C2
:101A10000020F3E70124294608EB050209EB050342
:101A200002F0030603F0030B5E4501D1012000E044
:101A30000020C0B200900098012828D196B1B2468B
:101A40000AE0521E5B1E107893F800E0704500D04B
:101A50000024491EAAF1010A012C03D111B1BAF1E7
:101A6000000FEED1012C12D117469C4609E03F1F12
:101A7000ACF1040C3868DCF800E0704500D00024BC
:101A8000091F012C01D10429F1D23A46634608E02E
:101A9000521E5B1E107893F800E0704500D00024C1
:101AA000491E012C01D10029F2D12046A6E7F0B54C
:101AB00003460E461546D96BB1FBF5F005FB101C2D
:101AC000BCF1000F02D0A5EB0C0200E0002294193B
:101AD000586CA04201D20020F0BD0F191144DF6301
:101AE000586C001B58640846F6E72DE9F04106469D
:101AF0000F46B6FBF3FC03FB1C6109B15C1A00E066
:101B00000024B2FBF3FC03FB1C2109B15D1A00E0C9
:101B1000002502EB0508A7F1010C08FB0C4C0CEBAF
:101B20000200BDE8F0812DE9FE4F8046894614464B
:101B30001E46002000900CB901AC00BF00202060C0
:101B4000524F00BF00BFFFF765FD009000BF00BF10
:101B5000F86B0290D7F844B04B46424601210298F8
:101B6000FFF7C3FF05465D450FD900BF00BF0098D2
:101B7000FFF754FD00BF00BFA5EB0B00206042F251
:101B8000E27030800020BDE8FE8F4A46414638466C
:101B9000FFF78DFF8246BAF1000F0CD100BF00BFE6
:101BA0000098FFF73BFD00BF00BF256042F2E270E6
:101BB00030800020E7E700BF00BF0098FFF72EFD50
:101BC00000BF00BF42F2107030805046DBE72DE9C5
:101BD000FC5F07460C4690460020009000BF00BF07
:101BE000FFF718FD009000BF00BFD7F80490D9F8A8
:101BF000380008B1484600E024488246DAF84450EC
:101C0000DAF83CB000BF00BF0098FFF707FD00BF47
:101C100000BF012C0AD9BBFBF4F004FB10B60EB1D7
:101C2000A01B00E00020019001982D1A42F21070D4
:101C3000A8F800002846BDE8FC9F70B504460D4694
:101C40002A4621461148FFF7C2FF0646304670BDBE
:101C500018B942F211720A807047104A02600022DD
:101C600042608260C260026142618261C26102625E
:101C7000826242630263C26242628263C26302643E
:101C8000426442F210720A8000BFE5E71C010020A6
:101C90004845415064010020300000204E4F4E4521
:101CA0002DE9FF4F91B00446DDE920890020009026
:101CB000B8F1000F02D10DF1180800BF0020C8F8DC
:101CC000000049462046FFF7C3FFB9F80000A0F521
:101CD0001C51103902D015B0BDE8F08FFF480068E4
:101CE00020B942F2E770A9F80000F4E7DFF8F0A3AA
:101CF0000020059000BF00BFFFF78CFC009000BFE4
:101D000000BF129880BB5546D3465646DAF83C00D1
:101D10000D9004231A4614990D98FFF7E6FE0490DF
:101D200004990D9808440C90DDE91E2314990C9831
:101D3000FFF7DBFE0390DDE9030108440590DAF8C4
:101D400044700598B8427ED900BF00BF0098FFF7E5
:101D500065FC00BF00BF0598C01BC8F8000042F238
:101D6000E270A9F80000B6E7FFE712980B90DDE9F2
:101D700012010844401E0A900025AB46D748066869
:101D80003BE0B16B1298814205D1316C13988142CE
:101D900001D1354633E0B06B0990316CB06B08442B
:101DA000401E0890DDE90901814200D227E009992F
:101DB0000B98884203D8DDE9091088420FD20999AF
:101DC0000B98884203D308990A98884207D9089942
:101DD0000B9888420FD808990A9888420BD300BF05
:101DE00000BF0098FFF71AFC00BF00BF42F27F70EF
:101DF000A9F800006FE7B346F668002EC1D100BF16
:101E000045B925461298A0631298E06313982064A0
:101E100013986064DAF83C000D9004231A46149974
:101E20000D98FFF762FE0490DAF844700498B84207
:101E300011D900BF00BF0098FFF7F0FB00BF00BF43
:101E40000498C01B00E023E0C8F8000042F2E270F2
:101E5000A9F800003FE7E86B0C90DDE91E23149918
:101E60000C98FFF742FE03906F6C0398B8420FD9AD
:101E700000BF00BF0098FFF7D1FB00BF00BF039871
:101E8000C01BC8F8000042F2D870A9F8000022E791
:101E9000149880000290042250460299FFF707FE32
:101EA0000F900F9830BBDAF8447000BF00BF009865
:101EB000FFF7B4FB00BF00BF129858B90598B842AD
:101EC00004D90598C01BC8F800000EE00598C8F8B2
:101ED00000000AE00298B84204D90298C01BC8F872
:101EE000000002E00298C8F8000042F2E270A9F88F
:101EF0000000F0E60020019034E02846DDE91E12E3
:101F0000FFF7D5FD0E900E9820BBE86B0C906F6C20
:101F100000BF00BF0098FFF781FB00BF00BF019921
:101F20001498401A0790DDE91E2307990C98FFF7D3
:101F3000DCFD05900598B84204D90598C01BC8F887
:101F4000000002E00598C8F8000042F2D870A9F835
:101F50000000C0E6019ADDE90E0141F82200019877
:101F6000401C0190149901988842C6D3A5420DD116
:101F7000C4F808B0E660BBF1000F02D0CBF80C400B
:101F800001E0564804605EB1B46009E068691090F1
:101F90002561109860616C61109808B11098046117
:101FA0005048206065600C98A06103990C98084423
:101FB000401EE0610F9820620398A0621F98606342
:101FC0001E9820631498E0621498606200BF00BFFE
:101FD0000098FFF723FB00BF00BF42F21070A9F882
:101FE000000000BF77E62DE9F04104460D460027CA
:101FF00000BF00BFFFF70EFB074600BF00BF666AC9
:1020000000BF00BF3846FFF709FB00BF00BF42F228
:10201000107028803046BDE8F0812DE9F04104467B
:1020200088461546002700BF00BFFFF7F3FA0746B2
:1020300000BF00BF606A60B900BF00BF3846FFF74D
:10204000EDFA00BF00BF42F2DE7028800020BDE83C
:10205000F081E16A606A88420BD900BF00BF384650
:10206000FFF7DCFA00BF00BF42F295702880002025
:10207000EDE7606A401E6062D4E9080150F8216013
:1020800000BF00BF3846FFF7C9FA00BF00BF42F2E9
:10209000107028803046DAE72DE9F04704460F46F5
:1020A00015464FF0000900BF00BFFFF7B3FA8146A5
:1020B00000BF00BFE06AC01B461EE06AB04213D8F2
:1020C00000BF00BF4846FFF7A9FA00BF00BF42F2B9
:1020D000957028800020BDE8F087000030000020C7
:1020E0001C010020504F4F4C606AB0420BD900BF1A
:1020F00000BF4846FFF792FA00BF00BF42F295705A
:1021000028800020E7E7206A50F8268000BF00BF43
:102110004846FFF783FA00BF00BF42F210702880E4
:102120004046D8E72DE9F04704460E4617464FF0E3
:10213000000A00BF00BFFFF76DFA824600BF00BF74
:10214000E16A606A88420BD300BF00BF5046FFF7C8
:1021500065FA00BF00BF42F2DD703880BDE8F0874D
:102160004FF00008656A08E0206A50F82590B145F4
:1021700002D14FF0010803E06D1CE06AA842F3D8D9
:1021800000BFB8F1010F06D1D4E9080150F82100D1
:10219000216A41F82500D4E9080140F82160606A0D
:1021A000401C606200BF00BF5046FFF737FA00BF17
:1021B00000BF42F21070388000BFCFE72DE9F84F22
:1021C00004460F461646002000904FF0FF3B00BF2C
:1021D00000BFFFF71FFA009000BF00BFE16A606A0E
:1021E00088420CD300BF00BF0098FFF717FA00BF6A
:1021F00000BF42F2DD7030805846BDE8F88F4FF0E6
:102200000009656A08E0206A50F82580B84502D1C7
:102210004FF0010903E06D1CE06AA842F3D800BF4B
:10222000B9F1010F0FD1E06A401EA0EB050A00BF13
:1022300000BF0098FFF7F2F900BF00BF42F2107034
:1022400030805046D9E700BF00BF0098FFF7E6F99D
:1022500000BF00BF42F2887030805846CDE70000D2
:1022600010B502460B461146002001E0491C401CF7
:1022700019B10C780CB19842F8D310BD30B50446B2
:102280004FF0FF312046FFF7EBFF0546284630BDF3
:1022900070B504460D4616460CB9002070BD0DB948
:1022A0000020FBE721462A46002304E0107808704E
:1022B000491C521C5B1C21B11AB1107808B1B34201
:1022C000F4D301B10AB90020E8E7B34201D20020FB
:1022D00008702046E2E770B504460D464FF0FF3225
:1022E00029462046FFF7D4FF0646304670BD70B53C
:1022F00003460C4615460BB9002070BD0CB90020F2
:10230000FBE70DB91846F8E7194600E0491C11B182
:1023100008780028FAD109B90020EEE72246002605
:1023200004E010780870491C521C761C21B11AB1C7
:10233000107808B1AE42F4D301B10AB90020DCE74D
:10234000002008701846D8E770B504460D464FF0D7
:10235000FF3229462046FFF7CAFF0646304670BDC9
:102360002DE9F04305460B469446BCF1000F02D11F
:102370000020BDE8F08335B90BB90020F9E71878E3
:1023800041420846F5E713B929780846F1E72A469D
:102390001C461746234626467F1C761C4FF0000835
:1023A00005E0521C641C7F1C761C08F101081078A3
:1023B00094F80090484505D1107818B117B10EB1C6
:1023C000E045EED3E04501D10020D2E7107894F843
:1023D0000090484505D0107894F80090A0EB0901D2
:1023E0000BE0107808B9002107E02FB90EB90021E1
:1023F00003E03078414200E039780846B9E770B52B
:1024000004460D464FF0FF3229462046FFF7A8FF4D
:102410000646304670BD2DE9F74F82B080460E4625
:10242000049818B9002005B0BDE8F08FB8F1000F8E
:1024300009D10EB90020F6E73078FFF7F9F9074621
:102440007C422046EFE73EB998F80000FFF7F0F92C
:1024500005462C462046E6E7C146B246C846CB466E
:102460005646CDF804A0D8460BF1010B019E701C16
:102470000190C84699F80000FFF7DAF9054656467C
:102480009AF80000FFF7D4F907460020009015E005
:1024900009F101090AF1010A0BF1010B0198401C35
:1024A00001900098401C009099F80000FFF7C0F9D7
:1024B00005469AF80000FFF7BBF90746BD420BD16D
:1024C00099F8000040B1BBF1000F05D0019818B198
:1024D000049900988842DBD304990098884201D17E
:1024E0000020A0E7BD4201D0EC1B16E00DB900248E
:1024F00013E0BBF1000F0AD1019808B900240CE0E9
:1025000001990878FFF794F907467C4205E09BF8AB
:102510000000FFF78DF905462C46204683E770B58D
:1025200004460D464FF0FF3229462046FFF773FF61
:102530000646304670BD30B504460B4615460CB90C
:10254000002030BD0BB90020FBE72146002201E04E
:10255000491C521C31B1087820B10878A84201D03A
:102560009A42F5D309B90020EBE79A4201D3002043
:10257000E7E70878A84201D00020E2E70846E0E754
:1025800070B505460C4622464FF0FF312846FFF74E
:10259000D2FF0646304670BD2DE9F04305460E4693
:1025A000174615B90020BDE8F0830EB90020FAE700
:1025B0002C46A6F1010949462046FFF751FE804608
:1025C00044440CB90020EEE700E0641EAC4202D0A7
:1025D0002078B842F9D12078B84201D00020E2E753
:1025E0002046E0E770B505460C4622464FF0FF3125
:1025F0002846FFF7D1FF0646304670BD70B5044649
:102600000D4616460CB9002070BD0BB90020FBE743
:1026100021461A4605E00878A84200D10E70491CF0
:10262000521E19B1087808B1002AF4D12046EBE710
:10263000F0B504460D4616464FF0FF3332462946A4
:102640002046FFF7DBFF07463846F0BD2DE9FF4F78
:1026500006460F4615461EB9002004B0BDE8F08FAF
:102660000FB90020F9E70DB90020F6E7681C00D08B
:1026700001E04FF0FF30039029463046FFF7F0FDB0
:10268000804638460399FFF7EBFD04460CB9304607
:10269000E3E7444501D90020DFE706EB080BBBF177
:1026A000000F01D10020D8E707EB040BBBF1000FAE
:1026B00001D10020D1E7A8EB040002904FF00009FF
:1026C0000020019000BF06EB090000902246394629
:1026D0000098FFF745FE8246BAF1000F01D10120B4
:1026E00000E00020C0B2019009F10109019810B981
:1026F00002988145E7D9BAF1000F01D00020ACE77C
:102700000098AAE770B504460D464FF0FF322946FF
:102710002046FFF79BFF0646304670BD2DE9FF4F70
:102720008DB00F4615461A9E1D9818B9002011B09D
:10273000BDE8F08F002003900490012F01DA012002
:102740000390022D01D3242D01D9012003909EB3C3
:102750003046FFF709F802900298012802D00120C4
:10276000039029E0302E27D0A6F13000C0B20790A8
:102770001B98012804D0A6F14100C0B2069003E0E6
:10278000A6F16100C0B206900A2D02D80798A842AF
:1027900009DB0A2D09D907980A2804D3A5F10A00F4
:1027A0000699884201D9012000E00020C0B20590BE
:1027B0000598012800D103901D9C039890BBDDF87B
:1027C00034A0DDF834A0CDF830A001200B9007E054
:1027D0000B98401CC0B20B900C98B0FBF5F00C901D
:1027E0000C98A842F4D21098012800D100E00020F3
:1027F000C0B209900B9909980844B84228DC00201F
:1028000001900B98B84201DA0B9800E03846C0B24C
:102810000A9046B1B8460A98391A0998081AC0B2FF
:10282000089007E016E0DDE90910084400F0FF0811
:10283000002008900898002807DD302E01D10120E3
:1028400000E00020C0B2049004E00020049001E009
:1028500001200390039800B1B84644441C9808B185
:1028600000202070641E4FF0000941E00398A8BBCF
:10287000BAF1000F02D1B9F1000F1CD1BAFBF5F08B
:1028800005FB10A000F0FF0BBBF10A0F04D20BF107
:10289000300004F801090BE01B98012804D00BF16B
:1028A000370004F8010903E00BF1570004F80109AF
:1028B000BAFBF5FA1AE01098012810D1049808B96B
:1028C000019828B1049850B1A8F10100484506D1FB
:1028D0002D2004F801090120019007E003E02EB14A
:1028E00004F8016902E03F2004F8010909F1010937
:1028F000C145BBD3039808B1002018E71D9816E71F
:102900002DE9FF5F05460E4617461C46DDE90F9A86
:10291000DDF8388000233A46314628468DE8100716
:10292000FFF7FCFE8346584604B0BDE8F09F2DE952
:10293000FF4F85B00446894692461F46DDF848B0F1
:10294000002C02DA6542012601E025460026DDE979
:102950001323CDE9007BCDE9022333465246494695
:102960002846FFF7DBFE8046404609B0BDE8F08F01
:102970002DE9FF4F8BB0064689461546B9F1000F89
:1029800002D10DF1240900BFC9F80060189810B9F0
:1029900007A8189000BF0021189801701EB90020E8
:1029A0000FB0BDE8F08F012D01D0242D01D90020FA
:1029B000F6E734462078FEF7C5FE039004E0641C79
:1029C0002078FEF7BFFE039003980128F7D0207807
:1029D0002B2802D02D280BD103E0641C4FF0000BF4
:1029E00009E00E98012800D1641C4FF0010B02E0B1
:1029F0004FF0000B00BF00BF0A9425B1082D1CD07A
:102A0000102D36D11EE02078302814D1641C207897
:102A1000582802D078280BD100BF10256778384697
:102A2000FEF774FE8246BAF1010F00D1641C01E08A
:102A3000082500BF00E00A251CE02078302800D1DE
:102A4000641C17E02078302812D1641C20785828A4
:102A500002D078280AD100BF67783846FEF756FEC4
:102A60008246BAF1010F00D1641C00E000BF00BF34
:102A700000E000BF00BF4FF000080020029001906E
:102A800040E027783846FEF7F3FD059005980128C9
:102A900036D13846FEF726FE06900698012804D166
:102AA000A7F13000C0B208900FE03846FEF706FEEE
:102AB00004900498012804D1A7F15700C0B20890EF
:102AC00003E0A7F13700C0B208900898A84214DAD2
:102AD000029880B92F4850F82500404509D308FBDB
:102AE00005F8089880440898804504D20120029097
:102AF00001E001200290641C04E00120019001E04B
:102B00000120019001980028BBD00298012801D132
:102B10004FF0FF380A98844202D0C9F8004001E023
:102B2000C9F80060189880F800B0404638E7F8B55A
:102B300004460D4616460023324629462046009399
:102B4000FFF716FF07463846F8BD2DE9FC4105465C
:102B50000E46174601AB009301233A4631462846FC
:102B6000FFF706FF04469DF8040040B9B4F1004F9A
:102B700002D36FF0004000E02046804607E0B4F149
:102B8000004F02D34FF0004000E0604280464046D4
:102B9000BDE8FC81B0AF0008002800D170470029D3
:102BA00000D17047002A00D170472DE9F81F00F0CE
:102BB000030301F00304A34211D1C3F1040303F0A2
:102BC0000303012B1DD3012A00D2F2E011F8014BBF
:102BD00000F8014BA3F10103A2F10102F1E700F0BB
:102BE000010301F00104A34200D094E0012B44D37F
:102BF00011F8014B00F8014BA3F10103A2F101020E
:102C0000F4E7B2F5B47F26D3B1E8F81FA0E8F81FC7
:102C1000B1E8F81FA0E8F81FB1E8F81FA0E8F81F16
:102C2000B1E8F81FA0E8F81FB1E8F81FA0E8F81F06
:102C3000B1E8F81FA0E8F81FB1E8F81FA0E8F81FF6
:102C4000B1E8F81FA0E8F81FB1E8F81FA0E8F81FE6
:102C5000A2F5B472D5E7282A06D3B1E8F81FA0E898
:102C6000F81FA2F12802F6E7042A06D351F8043B24
:102C700040F8043BA2F10402F6E7202A42D331F8DF
:102C8000023B20F8023B31F8023B20F8023B31F8CE
:102C9000023B20F8023B31F8023B20F8023B31F8BE
:102CA000023B20F8023B31F8023B20F8023B31F8AE
:102CB000023B20F8023B31F8023B20F8023B31F89E
:102CC000023B20F8023B31F8023B20F8023B31F88E
:102CD000023B20F8023B31F8023B20F8023B31F87E
:102CE000023B20F8023B31F8023B20F8023B31F86E
:102CF000023B20F8023B31F8023B20F8023BA2F1F4
:102D00002002BAE7022A06D331F8023B20F8023B40
:102D1000A2F10202F6E7102A42D311F8013B00F8B3
:102D2000013B11F8013B00F8013B11F8013B00F8B1
:102D3000013B11F8013B00F8013B11F8013B00F8A1
:102D4000013B11F8013B00F8013B11F8013B00F891
:102D5000013B11F8013B00F8013B11F8013B00F881
:102D6000013B11F8013B00F8013B11F8013B00F871
:102D7000013B11F8013B00F8013B11F8013B00F861
:102D8000013B11F8013B00F8013B11F8013B00F851
:102D9000013B11F8013B00F8013BA2F11002BAE738
:102DA000012A06D311F8013B00F8013BA2F1010210
:102DB000F6E7BDE8F81F704715481648164817484B
:102DC000174818481848194819481A481A481B48FB
:102DD0001B481C481C481D481D481E481E481F48CB
:102DE0001F4820482048214821482248224823489B
:102DF000234824482448254825482648264827486B
:102E00002748284828482948294800BF704700001B
:102E1000E4B0000844B0000848B000084CB0000816
:102E200050B0000854B0000858B000085CB000086A
:102E300060B0000864B0000868B000086CB000081A
:102E400070B0000874B0000878B000087CB00008CA
:102E500080B0000884B0000888B000088CB000087A
:102E600090B0000894B0000898B000089CB000082A
:102E7000A0B00008A4B00008A8B00008ACB00008DA
:102E8000B0B00008B4B00008B8B00008BCB000088A
:102E9000C0B00008C4B00008C8B00008CCB000083A
:102EA000D0B00008D4B00008D8B00008DCB00008EA
:102EB000E0B00008002400BF19E000BF00BFFEF72B
:102EC000A9FB044600BF00BFFB480068401CFA494C
:102ED0000860FA480068401CF849086000BF00BF5D
:102EE0002046FEF79BFB00BF00BF07F09BFBE4E71B
:102EF00010B58AB004460020EF4908600B2200217B
:102F000005910B46EE48CDE9072406910268ED488D
:102F10000168ED480068CDE90323CDE901013F23B5
:102F200000930023AFF27302E8A1ED4804F0A2FD84
:102F30000AB010BD00210AE001EB4102E94B03EBAE
:102F4000820000220281026042604A1CD1B2402904
:102F5000F2D3704770B5044607F06CFB0020E249DD
:102F60000870E2490870E2490870E2490860E249E5
:102F70000860E2490870E2490870E2490870E249D5
:102F80000860E2490860E2490860E2490870E248E6
:102F900000680A21B0FBF1F0E0490860E0480068F1
:102FA00058B1E048056845B1DD48066803E0761E83
:102FB000002028602D1D002EF9D10020DA4908607C
:102FC000DA490860DA490860DA490860DA490860D5
:102FD000DA490860DA490860DA49087003F02AF82B
:102FE000FFF7A8FF204601F05AFE208800B170BD0F
:102FF000204602F08EF9208800B1F8E7204602F062
:10300000B4F9208800B1F2E7204602F0FBFF2088E7
:1030100000B1ECE7204603F0A2FC208800B1E6E70F
:10302000204604F0B5F8208800B1E0E7204606F01D
:103030008DF9208800B1DAE7204601F0AEFF208844
:1030400000B1D4E72046FFF753FF208800B1CEE758
:10305000204606F0D8FA208800B1C8E7204604F0E0
:1030600053FB208800B1C2E7204607F036FA2088DB
:1030700000B1BCE700F036FEFFF79EFE00BFB6E7EA
:103080009A480078012800D0704797480078FA28BD
:1030900000DBF9E794480078401C9349087000BFB2
:1030A000F2E710B5002491480078012800D010BD47
:1030B00000BFFEF7AFFA044600BF8B48007828B97E
:1030C00000BF2046FEF7AAFA00BFF0E78648007866
:1030D000401E8549087008460078002805DD00BFBD
:1030E0002046FEF79BFA00BFE1E781480078002800
:1030F00005DD00BF2046FEF791FA00BFD7E702F0DA
:10310000A3FF7F4908700846007800EB400075492E
:1031100051F8200078490860084600687549096838
:10312000884205D100BF2046FEF778FA00BFBEE70F
:1031300071480068D0F89000401C6F490968C1F8D8
:10314000900081480068401C7F4908604FF0805023
:103150007E49086000BF2046FEF760FA00BF00BF4E
:10316000A5E710B5002460480078002800DD10BDF8
:103170005F480078002800DDF9E700BFFEF74AFA53
:10318000044600BF02F060FF5D4908700846007801
:1031900000EB4000534951F82000574908600846A9
:1031A000006854490968884205D100BF2046FEF7EF
:1031B00035FA00BFDBE750480068D0F89000401CAB
:1031C0004D490968C1F890005F480068401C5E499D
:1031D00008604FF080505D49086000BF2046FEF750
:1031E0001DFA00BF00BFC2E710B5414800780128B2
:1031F00003D1FEF75EF84449086010BD70B504467F
:10320000002539480078002803DD46F6625020800A
:1032100070BD36480078012803D045F689602080CB
:10322000F6E733480078FA2803DB45F209202080CE
:10323000EEE700BF00BFFEF7EDF9054600BF00BF97
:103240002B480078401C2A490870FFF7CDFF00BFCB
:1032500000BF2846FEF7E2F900BF00BF0020208033
:1032600000BFD5E710B52248007880B9FEF721F8F5
:1032700025490968441A25480068A04201D223481C
:10328000046023480068A04201D22148046010BDB8
:1032900070B50446002514480078002803DD46F682
:1032A0006550208070BD11480078012850D045F647
:1032B00089602080F6E7000058000020BC00002054
:1032C0004CB0000848B0000844B0000875432F4FC8
:1032D000532D4949492049646C65205461736B0042
:1032E000F4190020881B00205C0000205D000020F5
:1032F000A4000020FC000020000100208A00002023
:103300008B0000208C000020980000209C000020F2
:10331000A0000020AC000020A4B00008A8000020FD
:1033200074B0000870B000083C000020400000208D
:1033300044000020480000204C00002050000020E5
:1033400054000020DA000020D000002004ED00E04E
:10335000F948007818B946F664502080A2E700BF0B
:1033600000BFFEF757F9054600BF00BFF2480078DE
:10337000401EF14908700846007800280ADD00BFA9
:1033800000BF2846FEF74AF900BF00BF46F663506B
:10339000208087E7FFF766FF00BF00BF2846FEF7E3
:1033A0003DF900BF00BFFFF7DCFE0020208000BF1A
:1033B00078E72DE9F04105460C461646002700BF88
:1033C00000BFFEF727F9074600BF00BF012D03D05D
:1033D0000020DA49087002E00120D849087014B1D1
:1033E000D748046006E0D74800680A21B0FBF1F036
:1033F000D349086000BF00BF3846FEF70FF900BF91
:1034000000BF00203080BDE8F08110B501460C8976
:1034100024B1012C03D0022C0CD101E000BF14E038
:1034200008684A6802610024C4601461D0600A60C0
:1034300048600AE008684A68C36800241C61C460E8
:103440000261D0600B60486000BF00BF10BD2DE975
:10345000F04104460027BC480078002804DD48F20B
:10346000D1402080BDE8F081B3480078002803DD1A
:1034700046F663502080F5E7B0480078012803D075
:1034800046F67B102080EDE700BF00BFFEF7C2F8D4
:10349000074600BF00BFAD48007800EB4000AC49D4
:1034A00001EB8006308902280ADA00BF00BF3846E7
:1034B000FEF7B4F800BF00BF46F67A102080D1E7CF
:1034C0003046FFF7A2FF3568686D18B99C48006860
:1034D000A86501E0686DA86500BF00BF3846FEF72B
:1034E0009DF800BF00BFFFF73CFE0020208000BF1A
:1034F000B8E710B5044697480078E8B902F0A4FD93
:1035000095490870084600789049087092480078FC
:1035100000EB40008E4951F82000904908600846B1
:1035200000688F49086001208A49087007F06AFC2A
:1035300043F69920208002E045F68A60208010BD85
:1035400001460020088047F25C60704730B548B102
:103550004568C1F8C05000F10804226893681D6AEC
:10356000C56113E091F83450022D02D0072D08D127
:1035700003E07CA5C1F8C05007E07CA5C1F8C050AD
:1035800003E07DA5C1F8C05000BF00BF30BDF0B55D
:103590008E6896F8375007893FB9012707810027C1
:1035A0004F600F600160416023E007897F1C078145
:1035B000026806E0946894F83770AF4200DD02E0DC
:1035C0005268002AF6D100BF32B900274F60436825
:1035D0000B60596041600CE017682FB9116000273B
:1035E0000F604A60016004E013680B604A60596034
:1035F0001160F0BD10B5C287016300230AE000240A
:103600004C600C600C614C610C83CC618860203193
:103610005C1CA3B29342F2DB10BD2DE9F0410546DC
:1036200095F8370000EB4000494901EB80042F6911
:10363000EE6887B946B9002020812060606095F867
:10364000370002F023FD0EE02089401E208100207B
:103650003061266007E02089401E2081FE600EB99F
:10366000676000E0376100202861E860BDE8F08114
:1036700038B504460D4685B16B46022229462046E0
:1036800006F002F8BDF8000018B9032084F83600EF
:1036900006E0022084F8360002E0022084F83600BA
:1036A0002046FFF7BAFF38BD2DE9F04105460C462C
:1036B00016461F462A48006880F8346000202849D2
:1036C000096881F83500394625480068FFF7D0FFC2
:1036D0006CB104F10808EC6001222946204800681A
:1036E000FFF788FF29464046FFF751FF06E000201C
:1036F0001B490968C8871A4909680863184801689E
:103700002046FFF723FFBDE8F08110B50489012CA6
:1037100003D100240460446034E00C6824B94A6892
:103720000024146002602DE04C6824B90B6800246A
:103730005C60436026E021E0A4000020AC00002093
:10374000A8000020A4B000085C0000208A0000202F
:10375000881B00205D0000208B000020000100205D
:10376000FC0000205461736B205100005461736BA6
:103770002053656D00000000200000000B684A68BF
:103780005A6013600489641E048100244C600C603C
:1037900010BD2DE9F0410446256BE68F0AE0D5F80F
:1037A0000C8008F1080729463846FFF7AEFF2035A0
:1037B000701E86B2002EF2DC0020E0872063BDE898
:1037C000F08130B50346086BCC8F08E0C5689D4298
:1037D00002D10361C26104E02030651EACB2002C4E
:1037E000F4DC00BF30BD10B590F8373003EB430375
:1037F000FF4C04EB83010B893BB901230B810023B0
:10380000C36003610860486009E00B895B1C0B81A1
:103810000B68C360002303610A681061086010BD73
:1038200010B590F8373003EB4303F14C04EB830100
:103830000B893BB901230B810023C360036108603E
:10384000486008E00B895B1C0B810023C3604A6859
:103850000261D060486010BD10B5044694F837008E
:1038600002F004FC94F83700E2490978884203D159
:103870002046FFF7D5FF02E02046FFF7B4FF10BD5A
:1038800010B50446204605F089FD94F8360010F086
:10389000040F02D12046FFF7DFFF10BD70B50546CB
:1038A0000C46164694F8360008284DD2DFE800F0A2
:1038B0000405080906072A2B00BF00BF00BF44E02B
:1038C00000BF94F83400032804D13246214628462C
:1038D000FFF777FF0020E065A4F86000266415B1CB
:1038E0002046FFF756FF2046FFF7CAFF002004F1ED
:1038F0003404A0704FF0010060704FF0000004F835
:10390000340922E000BF94F83400032804D1324681
:1039100021462846FFF755FF0020E065A4F8600027
:10392000266415B12046FFF734FF204605F036FD2A
:10393000042004F13404A0704FF0010060704FF0D7
:10394000000004F8340900E000BF00BF70BD30B5CE
:10395000AFF2DC15C1F8C05000F1080422681AB1BA
:1039600093681D6AC56102E0AFF2F415C56130BD10
:103970002DE9F04304460F4684F83770256BB4F800
:103980003E8013E0D5F80C9009F108063089012833
:1039900007D929463046FFF7B8FE29463046FFF7DB
:1039A000F6FD2035A8F101001FFA80F8B8F1000FEC
:1039B000E8D1BDE8F08300210160416001817047DA
:1039C00003895B1C038103684B6000230B60026862
:1039D00002B1116001600389012B00D14160704781
:1039E00030B50346086BCC8F08E0C5689D4202D114
:1039F0000361C26104E02030651EACB2002CF4DC2F
:103A000000BF30BD70B506460C46154694F836002A
:103A100008284BD2DFE800F0040508090607292A28
:103A200000BF00BF00BF42E000BF94F8340003288D
:103A300004D12A4621463046FFF7D2FF0020E06538
:103A4000A4F8600025642046FFF7A3FE2046FFF798
:103A500017FF002004F13404A0704FF002006070E2
:103A60004FF0000004F8340921E000BF94F834005E
:103A7000032804D12A4621463046FFF7B1FF002033
:103A8000E065A4F860002564204605F087FC204628
:103A9000FFF77FFE042004F13404A0704FF0020011
:103AA00060704FF0000004F8340900E000BF00BF70
:103AB00070BDF0B50446059E086BCD8F0AE0C7685F
:103AC000A74204D1046142610383C66104E020304F
:103AD0006F1EBDB2002DF2DC00BFF0BD2DE9F84332
:103AE00005460C4616461F46DDF8208094F8360041
:103AF000082857D2DFE800F00405080906072E2F32
:103B000000BF00BF00BF4EE000BF94F834000328A0
:103B100008D13B46324621462846CDF80080FFF7C3
:103B2000C8FF04E0E665A4F86070C4F8408035B1D1
:103B30002046FFF72EFE21462846FFF708FF2046C5
:103B4000FFF79EFE002004F13404A070607004F8BA
:103B5000340928E000BF94F83400032808D13B461C
:103B6000324621462846CDF80080FFF7A2FF04E048
:103B7000E665A4F86070C4F84080204605F00EFCAD
:103B800035B12046FFF705FE21462846FFF7DFFE48
:103B9000042004F13404A0704FF00000607004F8B9
:103BA000340900E000BF00BFBDE8F88310B5002471
:103BB00000BFFDF72FFD044600BF00200E4908702E
:103BC0000E480F49086008460068D0F89000401C75
:103BD0000968C1F890000B480068401C094908605A
:103BE0004FF080500849086000BF20460EE00000FA
:103BF000881B00208A0000208B000020B81A0020BB
:103C000000010020D000002004ED00E0FDF706FDDB
:103C100000BF10BD70B5054600262E48007801286B
:103C200000D070BD00BF00BFFDF7F4FC064600BF2A
:103C300000BF2C683CB900BF00BF3046FDF7EEFC6A
:103C400000BF00BFEDE72448844207D100BF00BF9A
:103C50003046FDF7E3FC00BF00BFE2E7A06D10B106
:103C6000A06D401EA065A06D38B100BF00BF3046FA
:103C7000FDF7D4FC00BF00BFD3E72889022807DA8C
:103C800000BF00BF3046FDF7C9FC00BF00BFC8E75A
:103C900012480078002807DD00BF00BF3046FDF75E
:103CA000BDFC00BF00BFBCE72846FFF7AEFB2C6899
:103CB000606D18B90A480068A06501E0606DA065F4
:103CC00000BF00BF3046FDF7A9FC00BF00BF00BF2A
:103CD000A7E70000AC000020F4190020A400002099
:103CE000A80000202448254825482648264827487B
:103CF000274828482848294829482A482A482B483C
:103D00002B482C482C482D482D482E482E482F480B
:103D10002F483048304831483148324832483348DB
:103D200033483448344835483548364836483748AB
:103D3000374838483848394839483A483A483B487B
:103D40003B483C483C483D483D483E483E483F484B
:103D50003F4840484048414841484248424843481B
:103D600043484448444845484548464846484748EB
:103D7000474800BF70470000E8B0000850B2000894
:103D8000EAB00008EBB00008ECB00008F0B00008A2
:103D9000F4B00008F1B000081CB100081DB1000823
:103DA0001EB1000820B1000822B1000824B10008AB
:103DB00026B1000828B1000848B100084AB100083F
:103DC0004CB100084EB1000850B1000852B10008D3
:103DD00054B1000880B1000881B1000882B1000828
:103DE00084B1000886B1000887B1000888B10008D6
:103DF0008AB100088CB100088EB1000890B10008AB
:103E000092B1000894B10008C4B10008C5B100081F
:103E1000C6B10008C7B10008C8B10008CAB100089F
:103E2000CCB10008F4B10008F5B10008F6B1000803
:103E3000F7B10008F8B10008FAB10008FCB10008B9
:103E400000B2000801B2000802B2000803B2000884
:103E500004B2000805B2000806B2000807B2000864
:103E600008B200080AB200080BB200080CB2000841
:103E70000EB2000810B2000811B2000814B2000817
:103E800048B2000849B200084AB200084CB2000823
:103E90004EB20008FFA1C16100214161FE490968DD
:103EA00011B90021816105E0FB4909688161FA4986
:103EB00009684861F849086070472DE9F0410446F7
:103EC0000E4617461D464FF00008F44800780028BB
:103ED00004DD42F6E1602880BDE8F0811CB945F6BA
:103EE000C3502880F8E700BF00BF00BFFDF792FB7A
:103EF000804600BF00BFEA480078401CE8490870CF
:103F000000BF00BF4046FDF789FB00BF00BF00BFF8
:103F1000E4482060666027620020606204F10800C7
:103F2000FFF749FD2046FFF7B5FFDF480088401C3A
:103F3000DD49088000BF00BF00BFFDF76BFB804676
:103F400000BF00BFD6480078401ED549087000BFAA
:103F500000BF4046FDF762FB00BF00BF00BF00206E
:103F6000288000BFB8E770B50446D0482060D0A0D4
:103F700060600020206204F108052846FFF71BFD61
:103F800070BD426981693AB9C34B196009B1002318
:103F90004B610023836109E019B9002393614361F8
:103FA00004E091614A6100238361436170472DE918
:103FB000FC5F05468846144600200090B74800780C
:103FC000002805DD43F2C92020800020BDE8FC9FC9
:103FD00025B945F6C35020800020F7E7B8F1000F5F
:103FE00003D0B8F1010F02D100E000BF04E045F6B4
:103FF000256020800020E9E700BFAA4928688842A0
:1040000004D045F6C45020800020DFE700BF00BF89
:1040100000BFFDF7FFFA009000BF00BFA048007886
:10402000401C9F49087000BF00BF0098FDF7F6FADA
:1040300000BF00BF00BF05F10809B9F808603746A6
:10404000B8F1000F03D0B8F1010F72D16DE07FBB62
:104050002846FFF796FF94480088401E9249088042
:104060002846FFF780FF00BF00BF00BFFDF7D2FA70
:10407000009000BF00BF8A480078401E8849087041
:1040800008460078A8B98C480088002809DD00BFE0
:1040900000BF0098FDF7C2FA00BF00BFFFF786FD22
:1040A0000EE000BF00BF0098FDF7B8FA00BF07E0C0
:1040B0000AE000BF00BF0098FDF7B0FA00BF00BFE4
:1040C00000BF002020802FE000BF00BF00BFFDF731
:1040D000A1FA009000BF00BF71480078401E7049EF
:1040E000087008460078A0B973480088002809DDE8
:1040F00000BF00BF0098FDF791FA00BF00BFFFF7B7
:1041000055FD0DE000BF00BF0098FDF787FA00BF26
:1041100006E000BF00BF0098FDF780FA00BF00BFB7
:1041200000BF47F25F10208067E0FDF7C2F8019002
:104130000BE031E0D9F800A0DAF808B0594628467B
:10414000019AFFF75FFC701E86B2002EF2D128465E
:10415000FFF717FF54480088401E5349088028463F
:10416000FFF701FF00BF00BF00BFFDF753FA00904B
:1041700000BF00BF4A480078401E4949087000BF90
:1041800000BF0098FDF74AFA00BF00BF00BFFEF76E
:10419000E8FF0020208030E000BF00BF00BFFDF737
:1041A00039FA009000BF00BF3D480078401E3C49EE
:1041B000087008460078A0B93F480088002809DD4B
:1041C00000BF00BF0098FDF729FA00BF00BFFFF74E
:1041D000EDFC0DE000BF00BF0098FDF71FFA00BF27
:1041E00006E000BF00BF0098FDF718FA00BF00BF4F
:1041F00000BF45F62560208000BF00BF3846E5E6D9
:104200002DE9F04106460F4614461D46DDF818809C
:104210002A480068C0F8804028480068A0F8885004
:10422000002026490968C1F8840043460122394626
:104230003046FFF739FABDE8F0812DE9FF4F8BB02A
:10424000044688469946DDE9187500200290134817
:104250000078002806DD46F2AE10288000200FB05E
:10426000BDE8F08F24B945F6C35028800020F6E75A
:1042700048F20101A9EB010089454ED031DC40F242
:104280000111A9EB0100894543D023DCB9F1010FED
:104290003BD015E020000000740000205C000020EE
:1042A000A4000020464C4147780000204E4F4E4568
:1042B0003F464C414700000068000020FC00002001
:1042C000B9F1020F22D0B9F1040F20D0B9F1080FD3
:1042D0002BD11DE001281DD003281CD0072824D194
:1042E0001AE0B0F5807F1CD006DC012816D0032828
:1042F00015D0072819D113E0A0F58070013811D02E
:10430000022810D0062810D10EE000BF00BF00BF69
:1043100000BF00BF00BF00BF00BF00BF00BF00BFA5
:1043200000BF00BF00BF00BF04E045F62560288045
:10433000002094E700BFFA492068884204D045F67F
:10434000C450288000208AE719F4807F02D04FF003
:10435000010A01E04FF0000A0FB10020386009F0B7
:104360000F0B00BF00BFFDF755F9029000BF00BF63
:10437000BBF1010F71D0BBF1020F6FD0BBF1040F85
:1043800003D0BBF1080F6AD16AE0206A00EA080690
:10439000464517D1BAF1010F02D1206AB04320621D
:1043A000E0480068C0F884600FB1606A386000BF00
:1043B00000BF0298FDF732F900BF00BF002028803F
:1043C00030464CE719F4004F0BD000BF00BF0298F5
:1043D000FDF724F900BF00BF46F2B010288000208E
:1043E0003DE7D148007800280BDD00BF00BF0298F0
:1043F000FDF714F900BF00BF46F663502880002087
:104400002DE700BFC8480078401CC749087000BFAE
:1044100000BF0298FDF702F900BF00BF00BF0D9B6F
:1044200000934B464246214603A8FFF7E9FE00BF32
:1044300000BF00BFFDF7EEF8029000BF00BFBA4812
:104440000078401EB849087000BF00BF0298FDF711
:10445000E5F800BF00BF00BF44E168E0CFE035E110
:10446000206A00EA0806BEB1BAF1010F02D1206A43
:10447000B0432062AB480068C0F884600FB1606A46
:10448000386000BF00BF0298FDF7C8F800BF00BF4A
:10449000002028803046E2E619F4004F0BD000BF20
:1044A00000BF0298FDF7BAF800BF00BF46F2B01097
:1044B00028800020D3E69C48007800280BDD00BF50
:1044C00000BF0298FDF7AAF800BF00BF46F6635090
:1044D00028800020C3E600BF93480078401C924922
:1044E000087000BF00BF0298FDF798F800BF00BF3A
:1044F00000BF0D9B00934B464246214603A8FFF7A1
:104500007FFE00BF00BF00BFFDF784F8029000BF30
:1045100000BF85480078401E8349087000BF00BF77
:104520000298FDF77BF800BF00BF00BFDAE0206A09
:1045300028EA0006464517D1BAF1010F02D1206AD8
:104540003043206277480068C0F884600FB1606A29
:10455000386000BF00BF0298FDF760F800BF00BFE1
:104560000020288030467AE619F4004F0BD000BFB7
:1045700000BF0298FDF752F800BF00BF46F2B0102E
:10458000288000206BE66848007800280BDD00BF1B
:1045900000BF0298FDF742F800BF00BF46F6635027
:1045A000288000205BE600BF5F480078401C5E4921
:1045B000087000BF00BF0298FDF730F800BF00BFD1
:1045C00000BF0D9B00934B464246214603A8FFF7D0
:1045D00017FE00BF00BF00BFFDF71CF8029000BF30
:1045E00000BF51480078401E4F49087000BF00BF0F
:1045F0000298FDF713F800BF00BF00BF72E0206A09
:1046000028EA0006BEB1BAF1010F02D1206A304398
:10461000206244480068C0F884600FB1606A386066
:1046200000BF00BF0298FCF7F9FF00BF00BF0020E9
:104630002880304613E619F4004F0BD000BF00BFAE
:104640000298FCF7EBFF00BF00BF46F2B0102880D5
:10465000002004E63448007800280BDD00BF00BFCE
:104660000298FCF7DBFF00BF00BF46F663502880CE
:104670000020F4E500BF2C480078401C2A4908704F
:1046800000BF00BF0298FCF7C9FF00BF00BF00BF1A
:104690000D9B00934B464246214603A8FFF7B0FD11
:1046A00000BF00BF00BFFCF7B5FF029000BF00BF16
:1046B0001D480078401E1C49087000BF00BF0298CA
:1046C000FCF7ACFF00BF00BF00BF0BE000BF00BFA6
:1046D0000298FCF7A3FF00BF00BF45F625602880C5
:1046E0000020BCE500BFFEF73CFD00BF00BFFCF7AB
:1046F00091FF029000BF00BF0A48006890F83500A3
:1047000030B1012812D0022830D003283FD11EE05A
:104710001FB104480068006C38600020288042E027
:10472000464C4147FC000020A40000201FB1FD487A
:104730000068006C386000BF00BF0298FCF76EFF95
:1047400000BF00BF46F2A9102880002087E50FB106
:104750000020386000BF00BF0298FCF75FFF00BF79
:1047600000BF47F2D9202880002078E51FB1ED482E
:104770000068006C386000BF00BF0298FCF74EFF75
:1047800000BF00BF45F6C2502880002067E500BF8B
:1047900000BF0298FCF742FF00BF00BF46F62E6044
:1047A000288000205BE500BFDE480068D0F8846008
:1047B000BAF1010F23D1BBF1010F0ED0BBF1020FF3
:1047C0000CD0BBF1040F03D0BBF1080F0AD100E0FD
:1047D00000BF206AB043206210E000BF206A30436F
:1047E00020620BE000BF00BF0298FCF717FF00BF7C
:1047F00000BF45F625602880002030E500BF00BFDF
:1048000000BF0298FCF70AFF00BF00BF002028800D
:10481000304624E52DE9F05F05460E4614464FF07C
:10482000000AC1480078002805DD46F2AA10208061
:104830000020BDE8F09F25B945F6C3502080002038
:10484000F7E74EB1B6F5807F07D0B6F5004F05D03B
:10485000B6F5014F04D102E000BF00BF00BF04E085
:1048600045F6256020800020E3E700BFAF492868B7
:10487000884204D045F6C45020800020D9E700BF0C
:1048800000BFFCF7C7FE824600BF00BF05F1080766
:10489000388958B900BF00BF5046FCF7BFFE00BFC3
:1048A00000BF46F2AB1020800020C2E700BFA04846
:1048B0000078401C9E49087000BF00BF5046FCF7BE
:1048C000ADFE00BF00BF00BF4FF00008FCF7F1FCD9
:1048D00083460FE03868D0F808905A464946284683
:1048E000FEF7DCFF08F101001FFA80F8B6F5807FC3
:1048F00000D002E038890028ECDC00BF00BF00BF18
:1049000000BFFCF787FE824600BF00BF88480078E2
:10491000401E8749087000BF00BF5046FCF77EFE6E
:1049200000BF00BF00BF16F4004F01D1FEF719FC15
:104930000020208040467CE770B5044600267A4877
:104940000078002804DD46F2AE102080002070BD03
:1049500000BF00BFFCF75EFE064600BF00BF714807
:104960000068D0F8845000BF00BF3046FCF756FE08
:1049700000BF00BF002020802846E8E770B504464D
:104980000E46154604F1340426654FF000006070B1
:104990002070E560A078A4F13404082816D2DFE87E
:1049A00000F0040508090706101100BF00BF00BF92
:1049B0000DE000BF2046FEF763FF002084F83600BC
:1049C00005E000BF042084F8360000E000BF00BF0F
:1049D0002046FEF7DEFE70BD2DE9FF4F83B0044692
:1049E0008946DDF840800020009000BF00BFFCF742
:1049F00011FE009000BF00BF059848B101280DD0FE
:104A0000B0F5004F05D06FF4004140180CD106E01E
:104A100000BF206A40EA0900206214E000BF206A5B
:104A200020EA090020620EE000BF00BF0098FCF7FA
:104A3000F5FD00BF00BF45F62560A8F80000002086
:104A400007B0BDE8F08F00BF0698606204F1080B64
:104A5000BBF8080058B900BF00BF0098FCF7DEFDA6
:104A600000BF00BF0020A8F80000206AE8E700BFF0
:104A70002F480078401C2E49087000BF00BF0098E6
:104A8000FCF7CCFD00BF00BF00BFDBF80070BD68C5
:104A900089E078680190B5F8880000F00F0ABAF153
:104AA000010F24D0BAF1020F30D0BAF1040F03D0B5
:104AB000BAF1080F3ED10EE0206AD5F8801000EA66
:104AC0000106D5F88000B04204D131462846069A46
:104AD000FFF754FF61E0206AD5F8801000EA010674
:104AE00026B131462846069AFFF748FF55E0D5F82B
:104AF0008000216A20EA0106D5F88000B04204D186
:104B000031462846069AFFF739FF46E0D5F880007F
:104B1000216A20EA010626B131462846069AFFF7A7
:104B20002DFF3AE0FC0000205C000020464C41478D
:104B3000A400002000BF00BF00BFFCF76BFD009089
:104B400000BF00BF59480078401E58490870084609
:104B50000078A0B956480088002809DD00BF00BFD2
:104B60000098FCF75BFD00BF00BFFFF71FF80DE0EA
:104B700000BF00BF0098FCF751FD00BF06E000BF7A
:104B800000BF0098FCF74AFD00BF00BF00BF43F61E
:104B9000FF20A8F80000002052E700BF019F0FB1DE
:104BA000BD6800E00025002D7FF473AF00BF00BF9B
:104BB00000BFFCF72FFD009000BF00BF3B4800780E
:104BC000401E3A49087000BF00BF0098FCF726FD60
:104BD00000BF00BF00BF059810F4004F01D1FEF7E1
:104BE000C0FA00BF00BFFCF715FD009000BF00BF7A
:104BF000206A029000BF00BF0098FCF70FFD00BFC5
:104C000000BF0020A8F80000029819E72DE9FF472F
:104C100004460F4616461D4634B945F6C350288053
:104C2000002004B0BDE8F0874EB1012E08D0B6F5E3
:104C3000004F06D06FF40040301804D102E000BFEE
:104C400000BF00BF04E045F6256028800020E8E7AB
:104C500000BF18492068884204D045F6C450288017
:104C60000020DEE7FCF725FB81461348007800288A
:104C70000BDD00231A4621460E48CDE90169009755
:104C8000039500F01FF80020CBE74B46324639462B
:104C900020460095FFF7A0FE80464046C1E7002170
:104CA000064A1160064A118001807047A400002066
:104CB00068000020464C41475C0000207400002042
:104CC000780000202DE9F84F04460D4616461F4691
:104CD000DDE90BABDDF82890DDF834800020009092
:104CE00000BF00BFFCF796FC009000BF00BFDF488C
:104CF0000088DF49098888423EDADC480088401C89
:104D0000DA490880DB4800880988884203DAD748F6
:104D10000088D8490880D84800680460D6480068F0
:104D20008560D5480068C660D34800680782D248CD
:104D30000068C0F81490D0480068A0F818A0CE48C9
:104D40000068C0F81CB0CC4800684068CA490860D8
:104D50000120CA490881CA4808604860002001F063
:104D600085F9C848007818B1C6480078C649087067
:104D70000020A8F8000008E0C4480088401CC3498F
:104D8000088044F25360A8F8000000BF00BF0098FC
:104D9000FCF744FC00BF00BFBDE8F88F3EB5BC483F
:104DA00000680068BB4A811A90427CD00CDCBA498A
:104DB000401839D0B949401810D0B94940185CD0D2
:104DC000B849401867D13CE0B74808184ED0B749F9
:104DD000401861D0B64940185DD110E002ABAC4D2F
:104DE00000932D68EB69AA4D2D682A8BA84D2D687C
:104DF0006969A74D2D68A868FFF7EEFD7AE002AB60
:104E0000A3480068C269A24DCDE900232D682B8B11
:104E10009F4D2D682A8A9E4D2D68E9689C4D2D680E
:104E2000A86801F09CFC65E0994B1B68DA69984B17
:104E30001B68198B964B1B68986802AB02F06EF8E2
:104E400058E002AB92480068C269914DCDE9002359
:104E50002D682B8B8E4D2D682A8A8D4D2D68E96823
:104E60008B4D2D68A86803F025FA43E0884909684E
:104E7000886802A903F0D7FB3CE0854B1B68DA6920
:104E8000834B1B68198B824B1B68986802AB03F03D
:104E900038FE2FE007E02CE07D490968886802A908
:104EA00004F05AF926E07849097801EB4101734A88
:104EB00002EB8100FEF7AEFE7548006802AB0021F0
:104EC000C2697C4803F01DFE7B480068401E7A4999
:104ED00008600846006858B9784800680860FCF720
:104EE000E8F9044602AB22460021754803F009FEAA
:104EF00000E000BF00BF3EBD002700BF4CE0002621
:104F000048E000BF00BFFCF785FB074600BF00BFBD
:104F10005648008888B900205849088108604860D0
:104F200001F0B4F800BF00BF3846FCF777FB00BFC4
:104F300000BFFEF716F901262CE000BF00BF38467F
:104F4000FCF76CFB00BF00BFFCF7B3F90546FFF7A9
:104F500025FFFCF7AEF9441B5A480068A04201D275
:104F60005848046000BF00BFFCF754FB074600BF71
:104F700000BF474800684068454908603B480088D2
:104F8000401E3A49088000BF00BF3846FCF746FB88
:104F900000BF00BF002EB4D0B1E7F0B589B0054620
:104FA00000203A4908804848006820B944F252601D
:104FB000288009B0F0BD2E480088022803DA44F2A8
:104FC00054602880F5E700203E4908603E480468A8
:104FD0002646203600270CE03C4820600020A060D8
:104FE000E060208260612083666020342036781C77
:104FF00087B21F4800888742EEDB203C32480668B3
:1050000066601D4806602248066000201749088037
:10501000184908802E48006818B944F25560288065
:10502000C7E72C4800682C490968884203D244F23B
:1050300056602880BDE70322002105910B462548D4
:10504000CDE90725069102682448016820480068D8
:10505000CDE90323CDE901010023AFF2631220A1C2
:105060000748009302F006FD00BFA2E76800002099
:1050700058B000086A00002060000020881B002053
:10508000B81A00208A0000208C0000206C0000204C
:10509000640000205449434BADBAB2BE0DF90BFA7F
:1050A000F2F8F7FF0006F6FF00F7FDF700FFEFFF4D
:1050B00003FE0FFE4C1F0020F8000020F40000202B
:1050C000102000207000002054B000084E4F4E45C4
:1050D00060B0000868B00008A0B0000864B0000824
:1050E00075432F4F532D494949204953522051753B
:1050F000657565205461736B0000000000218161BB
:105100008749096811B90021C16105E0844909682E
:10511000C1618349096888618149086070472DE948
:10512000FF4F83B0044615461F46DDE91096002068
:1051300000907C480078002805DD45F2B960308099
:1051400007B0BDE8F08F1DB945F2BB603080F7E7CE
:10515000022F03DA45F2BC603080F1E7B9F1040FA9
:1051600003D245F2C1603080EAE74FF0030ABAF19A
:10517000000F0DD015EA0A0F03D045F2BB60308056
:10518000DEE719EA0A0F03D045F2C1603080D7E7A5
:10519000AB46A846781E80B201900020029007E03E
:1051A000C844CBF80080C3460298401C80B20290ED
:1051B000DDE901108842F3DB0020CBF8000000BFDE
:1051C00000BF00BFFCF726FA009000BF00BF5648A2
:1051D0000078401C5449087000BF00BF0098FCF7DD
:1051E0001DFA00BF00BF00BF504820600498A060B7
:1051F0006560E560A7826782A4F810902046FFF7FB
:105200007DFF4B480088401C4949088000BF00BF13
:1052100000BFFCF7FFF9009000BF00BF42480078D4
:10522000401E4149087000BF00BF0098FCF7F6F926
:1052300000BF00BF00BF0020308000BF80E72DE925
:10524000F04104460D4600272CB945F2BF60288086
:105250000020BDE8F08100BF00BFFCF7DBF9074686
:1052600000BF00BFA08A58B900BF00BF3846FCF796
:10527000D5F900BF00BF45F2C26028800020E8E7F2
:10528000E6683068E060A08A401EA08200BF00BFD0
:105290003846FCF7C3F900BF00BF00202880304625
:1052A000D7E72DE9F04104460E461546002724B9FC
:1052B00045F2BF602880BDE8F0811EB945F2BE60AE
:1052C0002880F8E700BF00BFFCF7A4F9074600BF3D
:1052D00000BFA08A618A88420ADB00BF00BF38464F
:1052E000FCF79CF900BF00BF45F2BA602880E2E7F6
:1052F000E0683060E660A08A401CA08200BF00BF6A
:105300003846FCF78BF900BF00BF0020288000BFA3
:10531000D1E70021024A1160054A118001807047DF
:105320007C0000205C000020A40000204D454D20A2
:105330008000002070B502460B4610461146103121
:105340005E1EB5B2002408E00160002646600681BA
:10535000C66010301031661CB4B2AC42F4DB0026DB
:10536000066046600681C66070BD10B50446784888
:10537000006818B945F21E70208010BD754800887D
:1053800018B945F21D702080F7E77248018870480F
:105390000068FFF7CFFF6E4800686F4908606D48EE
:1053A000008888800020C8800881208000BFE4E752
:1053B00010B5014648894B89002B17DD0A68664BFA
:1053C0001B681360644C4B6823602346DB884C8960
:1053D0001B1B614CE38023469B884C8923445E4C15
:1053E000A38000234B818B810B604B6010BD01813A
:1053F000002242818281026042607047F0B504461B
:105400000D46608940B90020288002B1106046F244
:10541000925018800020F0BD61684E68088928808D
:105420000AB1C868106008686060606818B9002038
:105430002060608102E06089401E6081464800680B
:105440000860454801608088401C434FB88038465A
:10545000C088401EF880002018803046DBE72DE928
:10546000F0410D46DDE90674B0F80AC0B0F80880D6
:10547000C44505DB46F2935CA4F800C0BDE8F081AA
:10548000DFF8D4C0BCF804C0BCF1000F04D145F271
:105490001D7CA4F800C0F1E7DFF8BCC0DCF8001008
:1054A000DFF8B480D1F800C0C8F800C0C446BCF82A
:1054B00004C0ACF1010CA8F804C0C446BCF806C096
:1054C0000CF1010CA8F806C0C446BCF808C0B8F836
:1054D0000680C44507DADFF880C0BCF806C0DFF8F4
:1054E0007880A8F808C0B0F80AC0BCF1000F06D157
:1054F000016041604FF0010CA0F80AC015E013F004
:10550000100F07D1066831604FF0000CC1F800C0E1
:10551000016004E0D0F804C0C1F800C04160B0F8F8
:105520000AC00CF1010CA0F80AC0B0F80CC0B0F829
:105530000A80C44503DAB0F80AC0A0F80CC04D6078
:105540000A81CF604FF0000CA4F800C000BF95E7BF
:1055500084B000087CB000087C1B0020F8A1C16169
:1055600000214161F749096811B90021816105E015
:10557000F44909688161F34909684861F1490860A3
:1055800070472DE9F04104460E4615460027EE48C7
:105590000078002804DD42F6E1602880BDE8F08153
:1055A0001CB945F6C3502880F8E700BF00BF00BF14
:1055B000FCF730F8074600BF00BFE4480078401C05
:1055C000E249087000BF00BF3846FCF727F800BF6B
:1055D00000BF00BFDE48206066600020206284F8C3
:1055E0002500A062402084F8240004F10800FEF7A2
:1055F000E2F92046FFF7B2FFD6480088401CD549A3
:10560000088000BF00BF00BFFCF704F8074600BFDA
:1056100000BFCE480078401ECC49087000BF00BFD4
:105620003846FBF7FBFF00BF00BF00BF002028800B
:1056300000BFB3E710B50446C7482060C7A060604C
:105640000020206284F82500A062402084F8240015
:1056500004F10800FEF7AFF910BD426981693AB95B
:10566000B84B196009B100234B610023836109E045
:1056700019B900239361436104E091614A610023F9
:105680008361436170472DE9FE4F05468946144604
:1056900000200090AC480078002805DD43F2C920C6
:1056A00020800020BDE8FE8F25B945F6C35020803C
:1056B0000020F7E7B9F1000F03D0B9F1010F02D1D3
:1056C00000E000BF04E045F6256020800020E9E707
:1056D00000BF9F492868884204D045F6C450208006
:1056E0000020DFE700BF00BF00BFFBF793FF009083
:1056F00000BF00BF95480078401C9449087000BF67
:1057000000BF0098FBF78AFF00BF00BF00BF05F194
:10571000080ABAF80870B846B9F1000F03D0B9F119
:10572000010F6FD16FE0B8F1000F3AD12846FFF7B3
:1057300094FF88480088401E864908802846FFF765
:1057400079FF00BF00BF00BFFBF764FF009000BF00
:1057500000BF7E480078401E7C49087008460078EB
:10576000A0B980480088002809DD00BF00BF00986C
:10577000FBF754FF00BF00BFFEF718FA0DE000BFB3
:1057800000BF0098FBF74AFF00BF06E000BF00BF64
:105790000098FBF743FF00BF00BF00BF0020208040
:1057A0002FE000BF00BF00BFFBF734FF009000BF39
:1057B00000BF66480078401E6449087008460078BB
:1057C000A0B968480088002809DD00BF00BF009824
:1057D000FBF724FF00BF00BFFEF7E8F90DE000BFB4
:1057E00000BF0098FBF71AFF00BF06E000BF00BF34
:1057F0000098FBF713FF00BF00BF00BF47F25F1028
:105800002080E2E0B0E02E6AF6B396F8370095F813
:10581000241088425DD096F83600082824D2DFE8AC
:1058200000F004131A1B14151C1D3046FDF7F5FE7D
:1058300095F8240086F8370096F8370000F016FC3B
:105840003046FDF7EDFF43E000BF00BF95F82400B0
:1058500086F837003CE000BF00BF00BF95F8241079
:105860003046FEF785F833E000BF00BF00BFFBF70E
:10587000D1FE009000BF00BF34480078401E33497D
:1058800008700846007800E023E0A0B93548008899
:10589000002809DD00BF00BF0098FBF7BFFE00BF76
:1058A00000BFFEF783F90DE000BF00BF0098FBF7D3
:1058B000B5FE00BF06E000BF00BF0098FBF7AEFEDC
:1058C00000BF00BF00BF46F62D6020800020E9E643
:1058D00000BFFBF7EEFC01900BE0DAF800B0DBF85C
:1058E000080002902846DDE90121FEF78BF8781EBA
:1058F00087B2002FF1D12846FFF7AFFE1548008888
:10590000401E144908802846FFF794FE00BF00BFE0
:1059100000BFFBF77FFE009000BF00BF0B48007880
:10592000401E0A49087000BF00BF0098FBF776FED2
:1059300000BF00BF00BFFDF714FC0020208044E042
:1059400020000000840000205C000020A400002053
:105950004D555458880000204E4F4E453F4D5554EC
:10596000455800006800002000BF00BF00BFFBF7E3
:1059700051FE009000BF00BFFE480078401EFD4968
:10598000087008460078A0B9FB480088002809DDA7
:1059900000BF00BF0098FBF741FE00BF00BFFEF74D
:1059A00005F90DE000BF00BF0098FBF737FE00BF10
:1059B00006E000BF00BF0098FBF730FE00BF00BF4D
:1059C00000BF45F62560208000BF00BF404669E665
:1059D0002DE9F04788B00546894690461C46109E42
:1059E0004FF0000AE5480078002805DD46F2AE10C9
:1059F000308008B0BDE8F0871DB945F6C35030804F
:105A0000F7E7B8F1000F03D0B8F5004F02D100E07E
:105A100000BF03E045F625603080EAE700BFD849C3
:105A20002868884203D045F6C4503080E1E70CB1C5
:105A30000020206000BF00BFFBF7ECFD824600BFE6
:105A400000BF95F82500C0B9CE4800682862CD484F
:105A5000006890F8370085F82400012085F82500BB
:105A60000CB1A86A206000BF00BF5046FBF7D6FD0E
:105A700000BF00BF00203080BBE7C249286A096828
:105A8000884212D195F82500401C85F825000CB1FC
:105A9000A86A206000BF00BF5046FBF7BFFD00BFF3
:105AA00000BF45F282703080A3E718F4004F0AD09F
:105AB00000BF00BF5046FBF7B1FD00BF00BF46F27C
:105AC000B010308095E7AB48007800280ADD00BFB1
:105AD00000BF5046FBF7A2FD00BF00BF46F6635073
